100100000001220190801115046982017                                                                                                                                                                                                                                                                                                                                                                                                                                                                                                                                                                                                                                                                                                                                                                                                                                                                                                                                                                                                                                                                                                                                                                                                                                                                                                                                                                                                                                                                                                                                                                                                                                                                                                                                                                                                                                                                                                                                                                                                                                               
10022017CRS19Q9000038  UITNameLine1TextFI1                   NameLine2TextFI1                                                      OECD2CA-17-124010141RZ0012-FI-108000002CA-17-124010141RZ0012-FI-108000001124010141RZ0012CACABusiness NumberFI1  OECD206000000001000000001OECD301AddressLine1TextFI1           AddressLine2TextFI1           CityNameFI1                 CountrySubentityFI1           CAJ9A2X34     000000000                                                                                                                                           000000000                                                                                                                                           000000000                                                                                                                                           000000000                                                                                                                                           000000002                                                                                                                                                                                                                                                                                                                                                                                                                                                                                                                                                                                                                                                                                                                                                                                                                                                                                                                                                                                                                                
10022017CRS19W9000488  UITNameLine1TextFI1                   NameLine2TextFI1                                                      OECD2CA-17-124010141RZ0012-FI-108000003CA-17-124010141RZ0012-FI-108000002124010141RZ0012CACABusiness NumberFI1  OECD206000000001000000001OECD301AddressLine1TextFI1           AddressLine2TextFI1           CityNameFI1                 CountrySubentityFI1           CAJ9A2X34     000000000                                                                                                                                           000000000                                                                                                                                           000000000                                                                                                                                           000000000                                                                                                                                           000000003                                                                                                                                                                                                                                                                                                                                                                                                                                                                                                                                                                                                                                                                                                                                                                                                                                                                                                                                                                                                                                
10022017CRS19Q9000039  UITNameLine1TextFI1CORR               NameLine2TextFI1CORR                                                  OECD2CA-17-124010141RZ0012-FI-108000004CA-17-124010141RZ0012-FI-108000003124010141RZ0012CACABusiness NumberFI1  OECD206000000001000000001OECD301AddressLine1TextFI1CORR       AddressLine2TextFI1CORR       CityNameFI1CORR             CountrySubentityFI1CORR       CAJ9A2X34     000000000                                                                                                                                           000000000                                                                                                                                           000000000                                                                                                                                           000000000                                                                                                                                           000000004                                                                                                                                                                                                                                                                                                                                                                                                                                                                                                                                                                                                                                                                                                                                                                                                                                                                                                                                                                                                                                
10042017CRS19Q9000039  U000000001OECD2OECD605accountNumberSL3              000000000000000234USDCA-17-124010141RZ0012-SL-108000012CA-17-124010141RZ0012-SL-1080000031 OECD202LASTNAMESL3CORR                    FIRSTNAMESL3CORR                   MIDDLENAMESL3CORR             19790921      00000000000000000100015000000000124CRS503USD00000000000000000         00000000000000000         00000000000000000         000000001000000002OECD301AddressLine1TextSL3CORR       AddressLine2TextSL3CORR       GatineauSL3CORR             QuebecSL3CORR                 CAJ9A 2X3     000000000                                                                                                                                           000000000                                                                                                                                           000000000                                                                                                                                           000000000                                                                                                                                           0000000010001IT987654321                     IT                                                  0000                                                                                    0000                                                                                    0000                                                                                    0000                                                                                    000000004                                                                                                                                                                                                                                                                                                                                                                                                
10022017CRS19Q9000040  UITNameLine1TextFI1CORR               NameLine2TextFI1CORR                                                  OECD2CA-17-124010141RZ0012-FI-108000005CA-17-124010141RZ0012-FI-108000004124010141RZ0012CACABusiness NumberFI1  OECD206000000001000000001OECD301AddressLine1TextFI1CORR       AddressLine2TextFI1CORR       CityNameFI1CORR             CountrySubentityFI1CORR       CAJ9A2X34     000000000                                                                                                                                           000000000                                                                                                                                           000000000                                                                                                                                           000000000                                                                                                                                           000000005                                                                                                                                                                                                                                                                                                                                                                                                                                                                                                                                                                                                                                                                                                                                                                                                                                                                                                                                                                                                                                
1007000000052019080111504698                                                                                                                                                                                                                                                                                                                                                                                                                                                                                                                                                                                                                                                                                                                                                                                                                                                                                                                                                                                                                                                                                                                                                                                                                                                                                                                                                                                                                                                                                                                                                                                                                                                                                                                                                                                                                                                                                                                                                                                                                                                    
